:100000000C9422010C9453010C9453010C94530151
:100010000C9453010C9453010C9453010C94530110
:100020000C9453010C9453010C9453010C94530100
:100030000C9453010C9453010C9453010C945301F0
:100040000C9453010C9453010C9453010C945301E0
:100050000C9453010C9453010C9453010C94900490
:100060000C9453010C9453010C9453010C945301C0
:100070000C9453010C9453010C9453010C945301B0
:100080000C9453010C9453010C9453010C945301A0
:100090000C9453010C9453010C9453010C94530190
:1000A0000C9453010C9453010C9453010C94530180
:1000B0000C9453010C9453010C9453010C94530170
:1000C0000C9453010C9453010C9453010C94530160
:1000D0000C9453010C9453010C9453010C94530150
:1000E0000C9453010C9484020C94FD010C940102B5
:1000F0000C940B020C94EC010C9427020C94D60186
:100100000C9461040C94D1010C940F020C94F40132
:100110000C9407020C9485020C9415020C94230293
:100120000C9474010C94F0010C94E8010C94F70108
:100130000C9459080C941D020C94190200000A0B2F
:1001400002090C0D0E080703040100000000000066
:10015000000000000000000000000000000000009F
:10016000000000000000000012111000000000005C
:10017000000000000000000000000000000000007F
:10018000000000002200250028002B002E00310076
:10019000340002010000050108010B0100002100EC
:1001A000240027002A002D00300033000101000048
:1001B000040107010A0105050505070508080808E7
:1001C000020202020A0A08080404040401010101EF
:1001D00001010101030303030303030304070707EA
:1001E0000C0C0C0C0C0C0C0C02020202060606068F
:1001F000060606060B0B0B0B0B0B0B0B010210205C
:10020000200808102040102040800201020108044C
:1002100002010102040810204080804020100804E0
:100220000201800402018040201008040201080439
:10023000020101020408102040800102040810207D
:100240004080590811241FBECFEFD1E2DEBFCDBFE1
:1002500000E00CBF12E0A0E0B2E0E6E7F2E100E06F
:100260000BBF02C007900D92AE33B107D9F722E061
:10027000AEE3B2E001C01D92A73FB207E1F711E083
:10028000C2E2D1E000E006C021970109802FFE0103
:100290000E941D09C132D10780E00807A9F70E941A
:1002A000DA040C9439090C94000090E0FC01E4504D
:1002B000FE4F24918A549E4FFC018491882399F02B
:1002C00090E0880F991FFC01E456FE4FA591B49170
:1002D000FC01EE57FE4F859194918FB7F894EC9105
:1002E000E22BEC938FBF0895AF92BF92CF92DF9233
:1002F000EF92FF920F931F93CF93DF936C017B01DB
:100300008B01040F151FEB015E01AE18BF08C0176B
:10031000D10759F06991D601ED91FC910190F081DE
:10032000E02DC6011995892B79F7C501DF91CF9191
:100330001F910F91FF90EF90DF90CF90BF90AF9003
:100340000895282F30E0F901E45CFE4F9491F90103
:10035000E450FE4F44912A543E4FF9012491222348
:1003600009F435C0992311F191509231F8F4E92F35
:10037000F0E08827E154FE4F8F4F0C941D09F001E7
:10038000F401D101E801EC01D601F701FD01010200
:1003900007020B020F0215021902D6011D022302E9
:1003A0002702809180008F7780938000E22FF0E019
:1003B000EE0FFF1FEE57FE4FA591B4918FB7F89443
:1003C000EC91611148C040954E234C938FBF089526
:1003D000809180008F7DE8CF80918000877FE4CF7F
:1003E00084B58F7784BDE2CF84B58F7DFBCF8091BC
:1003F000B0008F778093B000D9CF8091B0008F7D0F
:10040000F9CF809190008F7780939000CFCF80912B
:1004100090008F7DF9CF80919000877FF5CF8091FC
:10042000A0008F778093A000C1CF8091A0008F7D26
:10043000F9CF8091A000877FF5CF809120018F7741
:1004400080932001B3CF809120018F7DF9CF8091DF
:100450002001877FF5CF4E2BB8CF3FB7F89480911E
:100460008B0290918C02A0918D02B0918E0226B5E4
:10047000A89B05C02F3F19F00196A11DB11D3FBFDC
:10048000BA2FA92F982F8827BC01CD01620F711DAB
:10049000811D911D42E0660F771F881F991F4A95A5
:1004A000D1F708958F929F92AF92BF92CF92DF9231
:1004B000EF92FF924B015C010E942D026B017C01C7
:1004C0000E942D026C197D098E099F09683E7340B8
:1004D00081059105A8F321E0821A9108A108B108CD
:1004E00088EEC80E83E0D81EE11CF11C8114910433
:1004F000A104B10429F7FF90EF90DF90CF90BF9057
:10050000AF909F908F900895089590E080E00895B7
:10051000019728E1289FF001299FF00D1124E15750
:10052000FD4F208931896289738944895589848581
:1005300095850684F785E02D8E1B9F0B28173907BC
:100540006CF4260F371F281739075CF4240F351F6A
:10055000281739074CF082E090E0089590E080E0A1
:10056000089581E090E008958FEF9FEF08958F92B6
:100570009F92AF92BF920F931F93CF93DF93CDB70C
:10058000DEB7A1970FB6F894DEBF0FBECDBF19A29C
:10059000423008F44AE08E010F5D1F4F842E912CEB
:1005A000B12CA12CA50194010E94FB08E62FB901F2
:1005B000CA01EA3044F5E05DD801EE938D01232BAA
:1005C000242B252B79F790E080E0109769F0FD014E
:1005D00001900020E9F73197AF014A1B5B0BBD0189
:1005E0008FED92E00E947401A1960FB6F894DEBFE1
:1005F0000FBECDBFDF91CF911F910F91BF90AF90F4
:100600009F908F900895E95CD7CFFC010190002066
:10061000E9F73197AF01481B590BBC018FED92E010
:100620000C947401CF93DF93EC0160E08E810E9403
:10063000A10161E08E810E94A10160E08E810E9493
:10064000A1018BE891E00197F1F7DF91CF91089537
:10065000CF92DF92EF92FF920F931F93CF93DF938E
:100660006C017C0187E0E80EF11CD0E0C0E0062FB1
:1006700010E0B8010C2E02C0759567950A94E2F758
:100680006170F70181917F010E94A1012196C43020
:10069000D10579F7C601DF91CF911F910F91FF909E
:1006A000EF90DF90CF900C941203CF92DF92EF92F5
:1006B000FF920F931F93CF93DF93EC01F62E642FDD
:1006C0008C810E94A1018D818F3F19F060E00E9412
:1006D000A1010F2D10E08F8584FF25C06E0187E0FA
:1006E000C80ED11CF12CE12CB8010E2C02C075955E
:1006F00067950A94E2F76170F60181916F010E949B
:10070000A101FFEFEF1AFF0A88E0E816F10461F794
:10071000CE01DF91CF911F910F91FF90EF90DF906D
:10072000CF900C941203B80184E0759567958A9573
:10073000E1F7CE010E9428036F2DCE01DF91CF910A
:100740001F910F91FF90EF90DF90CF900C942803B2
:1007500040E0682F8FED92E00C94550381E00E94F9
:10076000A8038BE39FE10197F1F70895CF93DF93FF
:10077000813029F09091EE0298609093EE02809380
:10078000F2021092F30280E48093F40280E18093FD
:10079000F50280E58093F6028091E3020E94550104
:1007A0008091E4028F3F11F00E9455018091E50293
:1007B0000E945501CFEDD2E09E012F5D3240809125
:1007C000EE0284FD0AC084E090E0219628173907E4
:1007D0003CF48E810E945501EFCF88E090E0F5CF88
:1007E0008BE39DE00197F1F760E08091E3020E94C6
:1007F000A10160E08091E5020E94A1018091E402E4
:100800008F3F19F060E00E94A1018091EE0284FD0B
:1008100034C063E08FED92E00E942803CBE4D6E47D
:10082000CE010197F1F763E08FED92E00E9428037B
:100830002197F1F763E08FED92E00E94280383E5B2
:1008400092E00197F1F762E08FED92E00E942803B9
:100850008091EE0280620E94A80384E08093EF0200
:100860008CE00E94A8030E94AE0382E08093F00215
:1008700086E0DF91CF910C94A80380620E94A803C8
:100880008BE496E40197F1F78091EE0280620E947A
:10089000A80383E592E00197F1F78091EE02806270
:1008A0000E94A803D5CF9091F202891710F08FEF24
:1008B000890FE82FF0E0E152FD4F848980680C94A5
:1008C000A80341E00E94550381E090E00895CF9293
:1008D000DF92EF92FF926C01990FEE08FF08F7FE8E
:1008E00016C041E06DE28FED92E00E94550366274D
:1008F0007727CB016C197D098E099F094AE00E9478
:10090000B7020196FF90EF90DF90CF9008954AE0F4
:10091000C701B601FF90EF90DF90CF900C94B70223
:100920001F920F920FB60F9211242F933F938F9324
:100930009F93AF93BF938091870290918802A0917B
:100940008902B0918A023091860223E0230F2D376D
:1009500058F50196A11DB11D209386028093870250
:1009600090938802A0938902B0938A0280918B02AF
:1009700090918C02A0918D02B0918E020196A11DE2
:10098000B11D80938B0290938C02A0938D02B09343
:100990008E02BF91AF919F918F913F912F910F90B8
:1009A0000FBE0F901F90189526E8230F0296A11DE9
:1009B000B11DD2CFCF93DF9300D000D01F921F92F2
:1009C000CDB7DEB7789484B5826084BD84B581608C
:1009D00084BD85B5826085BD85B5816085BD80910A
:1009E0006E00816080936E00109281008091810082
:1009F000826080938100809181008160809381007A
:100A0000809180008160809380008091B10084603B
:100A10008093B1008091B00081608093B00080919C
:100A20009100826080939100809191008160809319
:100A30009100809190008160809390008091A1004E
:100A400082608093A1008091A10081608093A100C9
:100A50008091A00081608093A0008091210182603C
:100A600080932101809121018160809321018091F7
:100A7000200181608093200180917A0084608093BE
:100A80007A0080917A00826080937A0080917A0067
:100A9000816080937A0080917A00806880937A00E8
:100AA0001092C10084E00E94B6030E94AE0388E168
:100AB00092E00E94050381E40E94550188E30E94B0
:100AC000550189E30E9455018BE30E94550180E4A2
:100AD0000E94550187E30E9455018DE30E94550154
:100AE0008AE30E9455018FE30E94550186E30E942C
:100AF00055018CE30E9455018EE30E94550108E1E7
:100B0000A02E02E0B02E0CE012E08FE0E82E82E092
:100B1000F82E92E1C92E92E0D92E25E1222E22E074
:100B2000322E60E0D1018D911D010E94A10160E093
:100B3000F60181916F010E94A10160E0D7018D91C2
:100B40007D010E94A10160E0F80181918F010E9466
:100B5000A101A214B30429F72091990230919A02BD
:100B60003A8329834091B1025091B2025C834B8356
:100B70008091C9029091CA029E838D8342175307C8
:100B800024F45A8349833C832B832B813C81821735
:100B900093070CF43EC189819A812B813C812817EF
:100BA000390724F43A8329839C838B83DE011196D1
:100BB00081E090E02D913D914091990250919A02EF
:100BC0002417350709F42AC14091B1025091B202AD
:100BD0002417350709F429C14091C9025091CA026E
:100BE000EFEBF2E02417350709F41AC101968430BF
:100BF000910501F781E090E09093A6028093A50211
:100C000082E090E09093BE028093BD0283E090E08A
:100C10009093D6028093D5020E94AE0380E00E949A
:100C2000530480E292E00E9405038091DD029091DE
:100C3000DE020E9467042091DD023091DE021FE88F
:100C4000412E12E0512E47ED52E058874F83FA01B2
:100C50003201D30116968D919C9117972817390769
:100C60000CF4E6C01E964D915C91141615060CF01E
:100C7000DFC041E050E051834083B8E16B0E711C4E
:100C8000329647ED641642E0740619F7ECE0EE2E5A
:100C9000E2E0FE2EFFE0CF2EF2E0DF2EA2E1AA2E50
:100CA000A2E0BA2EB5E18B2EB2E09B2E07ED12E04A
:100CB000D8012D913D918D01F40181914F0161E0A9
:100CC0002130310581F060E00E94A10160E0D50192
:100CD0008C910E94A10160E0F60180810E94A10137
:100CE00060E0D7018C910E94A101BFEFAB1ABB0A53
:100CF000EFEFCE1ADE0AFFEFEF1AFF0A22E00D3DFA
:100D00001207B1F681E00E94530487E292E00E944C
:100D1000050377EDE72E72E0F72E10E000E0D70133
:100D20008D919D917D010F5F1F4F019739F4C8018F
:100D30000E94670485E292E00E94050303301105DA
:100D400071F790E080E00196EFE8F2E024813581D0
:100D50008217930781F4468957899A0121503109F6
:100D6000D901AA0FBB1FA952BD4F6D917C91613073
:100D7000710509F487C078966E167F0639F78330BF
:100D8000910509F782E00E9453048FE292E00E94ED
:100D900005032CE0E22E22E0F22E3FE0C32E32E0EB
:100DA000D32E42E1A42E42E0B42E05E112E060E031
:100DB000F80181918F010E94A10160E0D5018D9120
:100DC0005D010E94A10160E0F60181916F010E9426
:100DD000A10160E0D7018D917D010E94A101021562
:100DE000130529F768EE73E080E090E00E9452025C
:100DF0008091DD029091DE0201969093DE02809355
:100E0000DD0240E050E0452B09F406CF0E940000CF
:100E100003CF9C838B833E832D83BDCEEFE8F2E02E
:100E20009383828395838483E1CEE7EAF2E0F8CF6F
:100E3000D3014D915C911197452B59F4A901481BA1
:100E4000590BCA0118966D917C910E94E708892B75
:100E500019F01182108211CF81E090E0918380839C
:100E6000D3011C968D919C911D971F969C938E93F8
:100E70001E9712968D919C91139715969C938E9325
:100E80001497FBCE4F3F5F4F09F47CCFE8E1E29F20
:100E9000D001E39FB00D1124A157BD4F1296ED91E3
:100EA000FC91139714968D919C9115975696ED9001
:100EB000FC905FE8C52E52E0D52ED60112962D91FA
:100EC0003C91139714964D915C91159756961C91F1
:100ED000569757960C91AF81B8856D917D91B887E3
:100EE000AF836130710541F48417950729F4E21747
:100EF000F30714F4E12EF02EB8E1CB0ED11C6C14E4
:100F00007D04D9F6EFEFEE16FE0609F43BCF82E042
:100F10000E94530484E392E00E940503C7010E94EB
:100F2000670420919102309192022436310514F029
:100F300024E630E04091C1025091C2028091A902A2
:100F40009091AA02481759070CF4CA0128173907CB
:100F50000CF4C90187010150110928E1209FF0011B
:100F6000219FF00D1124E157FD4FD20156962D918E
:100F70003C9157972E153F0569F515969C938E93D6
:100F800014971E962D913C911F97215031091F9661
:100F90003C932E931E972D913C911197232BD1F4C6
:100FA0006485758526853785621B730B2089318999
:100FB00042895389240F351F261737075CF02617FF
:100FC000370741F412962D913C91139715963C9357
:100FD0002E931497B8E14B0E511C4C145D0429F666
:100FE000C7010E9488026C01F801EE5EFD4F80810E
:100FF000F801E15FFD4FB080C114D10409F446C08F
:1010000060E00E94A101B1E0CB16D10409F041C01B
:1010100061E08B2D0E94A1019FE0A92E92E0B92EE4
:10102000D12CC12C2FEFC21AD20AEC14FD0411F1FD
:10103000C6010E9488020197E9F485E0882E912C70
:10104000D5017C9061E0872D0E94A10162E370E0F0
:1010500080E090E00E94520260E0872D0E94A10192
:1010600062E370E080E090E00E945202B1E08B1AEF
:10107000910831F7EFEFAE1ABE0AF3E0CF16D104B4
:1010800089F6F801E45FFD4F60E00FC061E00E9467
:10109000A10160E08B2D0E94A101E2E0CE16D104F7
:1010A00081F7F801E45FFD4F61E080810E94A101BA
:1010B00099CEEFEDF2E01382128284E092E0918308
:1010C00080838DE084838FEF85838CE0868388E046
:1010D000878389E080878AE081878BE08287138617
:1010E000148615861686178681E00E94B603EEE602
:1010F000F2E081E090E0978B868B918380832BE0F8
:1011000030E03783268323E030E035872487378734
:101110002687118610866AE070E073876287918B5C
:10112000808B938B828B958B848BE6E5F2E042E09B
:1011300050E0578B468B118210829783868387E01D
:1011400090E0958784879787868784E190E09187F0
:10115000808793878287518B408B338B228B558B73
:10116000448BEEE3F2E0378B268B118210821782DC
:101170001682758764877787668789E290E0918712
:10118000808793878287318B208B85E090E0938BDB
:10119000828B558B448B88E1EEE6F2E0AFE8B2E05B
:1011A00001900D928A95E1F788E1E6E5F2E0A7EA81
:1011B000B2E001900D928A95E1F788E1EEE3F2E06A
:1011C000AFEBB2E001900D928A95E1F7089597FB9D
:1011D000072E16F4009407D077FD09D00E94250948
:1011E00007FC05D03EF4909581959F4F089570952A
:1011F00061957F4F0895A1E21A2EAA1BBB1BFD012A
:101200000DC0AA1FBB1FEE1FFF1FA217B307E407E5
:10121000F50720F0A21BB30BE40BF50B661F771F3D
:10122000881F991F1A9469F760957095809590951D
:101230009B01AC01BD01CF010895EE0FFF1F881F78
:101240008BBF0790F691E02D1994AA1BBB1B51E1AF
:1012500007C0AA1FBB1FA617B70710F0A61BB70B26
:10126000881F991F5A95A9F780959095BC01CD01CB
:061270000895F894FFCF81
:101276000000000061047401850284023B3A3E3995
:101286003D3C38373641403F74696D653A20300041
:1012960074696D653A200072656164793A20004987
:0E12A600444C450072756E6E696E673A20000A
:00000001FF
